:0300000002088A69
:0C088A00787FE4F6D8FD758109020800B3
:10080000750800750900E509450870382090054312
:10081000800280063090035380FD20910543A002A2
:10082000800630910353A0FD20920543801080067E
:100830003092035380EF20930543A0088006309345
:100840000353A0F720941AE50945087014750800B1
:1008500075090143800243A00243801043A0088031
:1008600006750800750900209516750800750902BF
:10087000D2945380FD53A0FD5380EF53A0F78086A0
:0908800075080075090002080664
:01088900224C
:00000001FF
