:03000000020BA14F
:0C0BA100787FE4F6D8FD758135020BE882
:100D2C008E308F31E5311531AE3070021530FFEF5A
:040D3C004E70F122E2
:0E0D720053B07F7FE87E03120D2C43B0802229
:060DD7008F1F851FA02202
:0E0D80008F32AF32120DD753B0DF120D722238
:0E0D8E008F33AF33120DD743B020120D7222F7
:100C72008B2D8A2E892FAB2DAA2EA92F1208F6FFB3
:100C8200EF601AAB2DAA2EA92F1208F6FF120D8EB5
:0E0C92007401252FF52FE4352EF52E80D92282
:100D53007F38120D807F0E120D807F06120D8022C8
:100CF10002080000100A373839253435362A3132D6
:060D0100332D23303D2BD1
:0D0D9C005390FE43900243900443900822C0
:0D0DA9004390015390FD43900443900822B5
:0D0DB6004390014390025390FB43900822AC
:0D0DC3004390014390024390045390F722A7
:040DDD007590FF22EC
:10092100753400120D9CE59020E40BE59030E4FB5A
:10093100850A34020A25E59020E50BE59030E5FBB8
:10094100850B34020A25E59020E60BE59030E6FBA5
:10095100850C34020A25E59020E70BE59030E7FB92
:10096100850D34020A25120DA9E59020E40BE590CE
:1009710030E4FB850E34020A25E59020E50BE59075
:1009810030E5FB850F34020A25E59020E60BE59062
:1009910030E6FB851034020A25E59020E70AE59050
:1009A10030E7FB851134807C120DB6E59020E40A16
:1009B100E59030E4FB851234806AE59020E50AE594
:1009C1009030E5FB851334805BE59020E60AE590E5
:1009D10030E6FB851434804CE59020E70AE5903041
:1009E100E7FB851534803D120DC3E59020E40AE54F
:1009F1009030E4FB851634802BE59020E50AE590E4
:100A010030E5FB851734801CE59020E60AE590303F
:100A1100E6FB851834800DE59020E708E59030E786
:060A2100FB851934AF341F
:010A270022AC
:070DD00075080075090022FF
:100C2D008F35E53564256038E535642A6032E53564
:100C3D00642D602CE535643D6026E535642B602020
:100C4D007B007A007935120AF3AA06AB07AE08AF1E
:100C5D00097C007D0A12090FEB2FF509EA3EF50814
:050C6D00AE08AF0922F2
:100CC900456E7465722050617373776F7264004466
:100CD9006F6F72204F70656E005073737772642066
:080CE90045720000000000004C
:080D0700022B04D202290000B6
:100D1000120D537F80120D807F01120D807BFF7AB0
:0C0D20000C79C9120C727FC0120D8022E9
:100A28007521007522007523007BFF7A0C79ECC0D4
:100A380003C002C0017B007A007924A801AC02AD92
:100A480003D001D002D0037E007F051208D0120D1A
:100A5800DD53B0BF120D101209218F21E52160F777
:100A6800E5216423705FE52AB52C23E529B52B1E03
:100A78007522007523007F01120D807F80120D8082
:100A88007BFF7A0C79D8120C72120CA0802C0523EB
:100A9800E523700205227F01120D807F80120D80F0
:100AA8007BFF7A0C79E2120C72E52364034522700D
:100AB8000975220075230043B040752900752A0086
:100AC800120DD08092E521B43D0F120D107529004A
:100AD800752A00120DD0020A5F7F2A120D8EAF21EF
:0A0AE800120C2D8E298F2A020A5FDE
:010AF20022E1
:100CA0007580017F587E1B120D2C7580027F587E47
:100CB0001B120D2C7580047F587E1B120D2C758025
:090CC000087F587E1B120D2C2246
:100BAD00020A28E493A3F8E493A34003F68001F22C
:100BBD0008DFF48029E493A3F85407240CC8C33349
:100BCD00C4540F4420C8834004F456800146F6DF18
:100BDD00E4800B0102040810204080900CF1E47EAB
:100BED00019360BCA3FF543F30E509541FFEE4930D
:100BFD00A360010ECF54C025E060A840B8E493A3D4
:100C0D00FAE493A3F8E493A3C8C582C8CAC583CAFE
:100C1D00F0A3C8C582C8CAC583CADFE9DEE780BEB6
:010D0F0000E3
:10080000E709F608DFFA8046E709F208DFFA803EDA
:1008100088828C83E709F0A3DFFA8032E309F608C7
:10082000DFFA8078E309F208DFFA807088828C832F
:10083000E309F0A3DFFA806489828A83E0A3F608E3
:10084000DFFA805889828A83E0A3F208DFFA804CBD
:1008500080D280FA80C680D4806980F28033801094
:1008600080A680EA809A80A880DA80E280CA8033FD
:1008700089828A83ECFAE493A3C8C582C8CCC58375
:10088000CCF0A3C8C582C8CCC583CCDFE9DEE78045
:100890000D89828A83E493A3F608DFF9ECFAA9F0C4
:1008A000EDFB2289828A83ECFAE0A3C8C582C8CC1A
:1008B000C583CCF0A3C8C582C8CCC583CCDFEADE33
:1008C000E880DB89828A83E493A3F208DFF980CC95
:1008D00088F0EF60010E4E60C388F0ED2402B4048E
:1008E0000050B9F582EB2402B4040050AF23234535
:0608F00082239008507302
:1008F600BB010689828A83E0225002E722BBFE0200
:09090600E32289828A83E4932232
:10090F00EF8DF0A4A8F0CF8CF0A428CE8DF0A42EFC
:02091F00FE22B6
:100AF3008B1A8A1B891CAB1AAA1BA91C1208F6FFA6
:100B0300120D40500D7401251CF51CE4351BF51B1B
:100B130080E4D200AB1AAA1BA91C1208F6FF642BAF
:100B23006004EFB42D1BAB1A051CE51CAA1B700255
:100B3300051B14F91208F6642D6003D38001C392D8
:100B430000E4F51DF51EAB1AAA1BA91C1208F6FF3B
:100B5300120D635036AB1AAA1BA91C1208F6FF33F9
:100B630095E0FEEF24D0FBEE34FFFAAE1DAF1E7C02
:100B7300007D0A12090FEF2BF51EEE3AF51D7401E5
:100B8300251CF51CE4351BF51B80BB300006AE1D90
:0E0B9300AF1E8009C3E4951EFFE4951DFE22EF
:0F0D6300EFC394304007EF943A50028001C3224F
:100D4000EFC394094005EF940E4003BF2003D38006
:030D500001C322BA
:00000001FF
