:100000000C945D000C9485000C9485000C94850084
:100010000C9485000C9485000C9485000C9485004C
:100020000C9485000C9485000C9485000C9485003C
:100030000C9485000C9485000C9485000C9485002C
:100040000C947F070C9485000C944D070C942707A3
:100050000C9485000C9485000C9485000C9485000C
:100060000C94C9070C9485000000000800020100F0
:100070000003040700000000000000000000000072
:10008000250028002B0000000000240027002A0083
:10009000040404040404040402020202020203032E
:1000A0000303030301020408102040800102040836
:1000B0001020010204081020E80811241FBECFEF11
:1000C000D8E0DEBFCDBF11E0A0E0B1E0E8E5F7E1A8
:1000D00002C005900D92A237B107D9F723E0A2E73D
:1000E000B1E001C01D92A030B207E1F710E0CDE50C
:1000F000D0E004C02197FE010E94A40BCC35D107AB
:10010000C9F70E9431090C94AA0B0C94000090E0EE
:10011000FC01EC55FF4F249180579F4FFC018491C7
:10012000882399F090E0880F991FFC01EA57FF4F50
:10013000A591B491FC01E458FF4F859194918FB73C
:10014000F894EC91E22BEC938FBF089508950895F5
:10015000AF92BF92CF92DF92EF92FF920F931F93D5
:10016000CF93DF936C017B018B01040F151FEB0113
:100170005E01AE18BF08C017D10759F06991D601CA
:10018000ED91FC910190F081E02DC6010995892B3C
:1001900079F7C501DF91CF911F910F91FF90EF90FB
:1001A000DF90CF90BF90AF900895FC01538D448DA8
:1001B000252F30E0842F90E0821B930B541710F012
:1001C000CF96089501970895FC01918D828D98171F
:1001D00061F0A28DAE0FBF2FB11D5D968C91928DF7
:1001E0009F5F9F73928F90E008958FEF9FEF089528
:1001F000FC01918D828D981731F0828DE80FF11DF1
:10020000858D90E008958FEF9FEF0895FC01918D0B
:10021000228D892F90E0805C9F4F821B91098F7304
:10022000992708958CE492E00E94060121E0892B31
:1002300009F420E0822F089580E090E0892B29F0D6
:100240000E94120181110C9400000895FC01A48DFC
:10025000A80FB92FB11DA35ABF4F2C91848D90E0E8
:1002600001968F739927848FA689B7892C93A089CB
:10027000B1898C91837080648C93938D848D981355
:1002800006C00288F389E02D80818F7D80830895E8
:10029000EF92FF920F931F93CF93DF93EC0181E0D6
:1002A000888F9B8D8C8D98131AC0E889F98980817D
:1002B00085FF15C09FB7F894EE89FF896083E889B0
:1002C000F98980818370806480839FBF81E090E0A2
:1002D000DF91CF911F910F91FF90EF900895F62E2F
:1002E0000B8D10E00F5F1F4F0F731127E02E8C8DC9
:1002F0008E110CC00FB607FCFACFE889F98980810E
:1003000085FFF5CFCE010E942601F1CFEB8DEC0FDA
:10031000FD2FF11DE35AFF4FF0829FB7F8940B8F2A
:10032000EA89FB8980818062CFCFCF93DF93EC0194
:10033000888D8823B9F0AA89BB89E889F9898C91CD
:1003400085FD03C0808186FD0DC00FB607FCF7CF89
:100350008C9185FFF2CF808185FFEDCFCE010E9489
:100360002601E9CFDF91CF91089590E0FC01E85993
:10037000FF4F2491FC01EC55FF4F3491FC01E057F5
:10038000FF4FE491EE23C9F0222339F0233001F12D
:10039000A8F4213019F1223029F1F0E0EE0FFF1F0F
:1003A000E458FF4FA591B4918FB7F894EC91611187
:1003B00026C030953E233C938FBF08952730A9F087
:1003C0002830C9F0243049F7809180008F7D03C028
:1003D000809180008F7780938000DFCF84B58F7706
:1003E00084BDDBCF84B58F7DFBCF8091B0008F774C
:1003F0008093B000D2CF8091B0008F7DF9CF3E2B9B
:10040000DACF61E08091F5020C94B50180E58CBDF6
:1004100081E08DBD60E08091F5020C94B5013FB79D
:10042000F8948091DE019091DF01A091E001B091FC
:10043000E10126B5A89B05C02F3F19F00196A11D2B
:10044000B11D3FBFBA2FA92F982F8827BC01CD011E
:10045000620F711D811D911D42E0660F771F881F7D
:10046000991F4A95D1F708958F929F92AF92BF92AC
:10047000CF92DF92EF92FF924B015C010E940F023C
:100480006B017C010E940F026C197D098E099F0986
:10049000683E734081059105A8F321E0821A910816
:1004A000A108B10888EEC80E83E0D81EE11CF11C3B
:1004B00081149104A104B10429F7FF90EF90DF901B
:1004C000CF90BF90AF909F908F90089508958EBD6C
:1004D00000000DB407FEFDCF8EB508951F93CF9396
:1004E000DF93182FD62FC42F0E94060285E00E94AA
:1004F0006702812F0E9467028D2F0E9467028C2F56
:100500000E946702DF91CF911F910C940102CF925C
:10051000DF92EF92FF92CF93DF93D82F482F60EEB8
:100520008FE00E946E028FB7F894C090F801D090CF
:10053000F901E090FA01F090FB018FBF8AE0C80E4C
:10054000D11CE11CF11C2FB7F8948091F801909117
:10055000F901A091FA01B091FB012FBF8C159D0507
:10056000AE05BF05E0F40E94060283E00E94670228
:100570008EE00E94670280E00E946702C82F0E94FE
:100580000102C07EDC13DFCF81E091E0892790E09B
:10059000DF91CF91FF90EF90DF90CF90089580E0B2
:1005A000F4CFCF93DF93D82FC62F0E94060282E0AC
:1005B0000E9467028D2F0E9467028C2F0E946702A3
:1005C000DF91CF910C940102EF92FF920F931F9352
:1005D000CF93DF93C82F162FE72E042F0E94060219
:1005E00082E00E9467028C2F0E946702F12EC12FC9
:1005F000DE2D89910E9467028C2F8F198017C8F316
:10060000DF91CF911F910F91FF90EF900C94010219
:10061000FF920F931F93CF93DF93C82FF62E172FC0
:10062000042F0E94060283E00E9467028C2F0E9422
:100630006702CF2DD12F0C0F1D2F111DC017D10711
:1006400029F080E00E9467028993F8CFDF91CF9173
:100650001F910F91FF900C940102AF92BF92CF9225
:10066000DF92EF92FF920F931F93CF93DF9300D00F
:1006700000D01F92CDB7DEB78C01000F111F000F05
:10068000111FF801E45FFE4F45E0BE016F5F7F4F31
:1006900081810E9408038A81C98098E0C99E600117
:1006A0001124282F30E055E0359527955A95E1F72C
:1006B000C20ED31E0D2C000CEE08FF0883FF20C0D5
:1006C00092E0CC0CDD1CEE1CFF1C9A95D1F78370D8
:1006D000C80ED11CE11CF11CFE2CED2CDC2CCC2412
:1006E0008B81C80ED11CE11CF11CFE2CED2CDC2CE6
:1006F000CC248C81C80ED11CE11CF11C6894F7F845
:100700008D818F70B82EE8E081E090E0EB1588F1E4
:10071000F801E45FFE4FA0800E94060283E00E9481
:1007200067028A2D0E94670280E00E946702A82E5D
:100730000E940102A3FE02C06894F6F8C092E8018C
:10074000D092E901E092EA01F092EB01B092EC0163
:10075000045F1E4F4B2D60EF71E0F80182810E9413
:10076000080340E0F80163818CE20E946E0290E091
:1007700080E00F900F900F900F900F90DF91CF912E
:100780001F910F91FF90EF90DF90CF90BF90AF90AF
:100790000895CF930E94060280EA0E94670280E0DB
:1007A0000E946702C82F0E94010290E080E0C0FD15
:1007B00004C0C1FF05C081E090E0CF910C942D03EF
:1007C00085E090E0CF910895CF93CFB7F8948091D2
:1007D000DC01811124C0EAE9F0E08491EEEAF0E066
:1007E0009491E82FF0E0EE0FFF1FEA57FF4FA5911D
:1007F000B491EC91E92321F461E08AE00E94B50113
:100800008AE00E9487008CB580618CBD8CB58064C5
:100810008CBD8DE00E9487008BE00E948700809154
:10082000DC018F5F8093DC01CFBFCF9108952091D1
:10083000B901260F3327331F21323105ECF4209103
:100840002202FC0190E080E0243069F082E008950B
:10085000A091B9012191AC0147565E4FA40FB52F6D
:10086000B11D2C930196861798F38091B901680FFA
:100870006093B90180E0089581E00895109222020A
:1008800081E0809321021092FC0161E082E10E94EC
:10089000B50161E083E10E94B501E9EBF0E0808100
:1008A0008E7F808380818D7F808388E48093B800F1
:1008B00085E48093BC000895CF93DF9391E09093FB
:1008C00098018823B9F0C091B800D091BA00809106
:1008D000BC008A7B8093BC0060E082E10E94B5018D
:1008E00060E083E10E94B5010E943E04D093BA000B
:1008F000C093B800DF91CF910895CF92DF92EF922D
:10090000FF920F931F93CF93DF93D0914B0281E01F
:10091000D13208F09CC0C0914A020E940F026B01C4
:100920007C018091220281116CC082E080932202BE
:1009300081E0809321028FEF8093200210921F02AA
:10094000D0931E02AAE2B2E0EEEFF1E080E0D8130D
:100950008DC01092FD018091FD01CC0FC82BC0937A
:10096000FD018091FC01813009F084C01092FC01EE
:100970000E940F026B017C018091FD018093BB00FE
:100980008091240290912502A0912602B091270225
:10099000892B8A2B8B2BA1F00E940F02009124023D
:1009A0001091250220912602309127026C197D09B1
:1009B0008E099F09061717072807390708F442C050
:1009C0008091BC0083FDD8CF85EC8093BC000E9451
:1009D0000F026B017C0180912202823009F44CC02D
:1009E000809120028F3F09F469C0809120028032FB
:1009F00009F466C080912002803309F463C084E06A
:100A000026C08091240290912502A0912602B091E7
:100A10002702892B8A2B8B2B09F483CF0E940F028C
:100A20000091240210912502209126023091270284
:100A30006C197D098E099F090617170728073907C2
:100A400008F06FCF809123020E945C0485E0109231
:100A5000290210924B0210922802DF91CF911F9130
:100A60000F91FF90EF90DF90CF9008959D9191931B
:100A70008F5F6DCF85EEA9CF8091240290912502E2
:100A8000A0912602B0912702892B8A2B8B2B09F487
:100A9000A2CF0E940F020091240210912502209102
:100AA0002602309127026C197D098E099F090617CD
:100AB00017072807390708F08ECFC4CF80E0C7CFCB
:100AC00082E0C5CF83E0C3CF0895E091E701809134
:100AD000E601E81730F4F0E0E858FE4F808190E03E
:100AE00008958FEF9FEF08959091E7018091E601BF
:100AF0002FEF3FEF981748F4E92FF0E0E858FE4F4A
:100B0000208130E09F5F9093E701C90108958091B3
:100B1000E6019091E701891B990B0895CF92DF922E
:100B2000EF92FF920F931F93CF93DF937C01CB0142
:100B30008A0120912802222389F0EB016B01C40E67
:100B4000D51ECC15DD0569F06991D701ED91FC91B9
:100B50000190F081E02DC7010995F3CF642F0E9429
:100B60001704C801DF91CF911F910F91FF90EF9073
:100B7000DF90CF900895CF93DF931F92CDB7DEB76C
:100B80006983209128022223F9F020914B02203220
:100B900058F021E030E0FC013383228390E080E0D4
:100BA0000F90DF91CF91089580912902E82FF0E016
:100BB000E65DFD4F998190838F5F8093290280933A
:100BC0004B0281E090E0ECCF61E0CE0101960E9403
:100BD0001704F7CFCF93DF93EC0181E080932802D5
:100BE0008EE380934A021092290210924B02688190
:100BF00089EE92E00E94BB05698189EE92E00E9435
:100C0000BB05DF91CF910C947D04CF93DF9300D08F
:100C1000CDB7DEB790E899838A83CE0101960E9412
:100C2000EA050F900F90DF91CF910895CF93DF9356
:100C300000D0CDB7DEB780E489836A83CE01019608
:100C40000E94EA0581E090E00F900F90DF91CF9134
:100C50000895CF93C62F91E09093280292E6909347
:100C60004A021092290210924B02682F89EE92E0FC
:100C70000E94BB056C2F89EE92E00E94BB05CF91CC
:100C80000C947D0490E080E00895FB010190002029
:100C9000E9F73197AF01461B570BDC01ED91FC9151
:100CA0000280F381E02D09944F925F926F927F92C0
:100CB000AF92BF92CF92DF92EF92FF920F931F936A
:100CC000CF93DF93CDB7DEB7A1970FB6F894DEBF11
:100CD0000FBECDBF5C016A017B01F7FE47C0DC019E
:100CE000ED91FC910190F081E02D6DE209958C0170
:100CF00022273327A9012C193D094E095F0919A2A2
:100D0000FE01B1967F019AE0492E512C612C712C85
:100D1000CA01B901A30192010E94820B605DD70153
:100D20006E937D01211531054105510589F790E04C
:100D300080E0109721F0BD01C5010E944506800F9B
:100D4000911FA1960FB6F894DEBF0FBECDBFDF9105
:100D5000CF911F910F91FF90EF90DF90CF90BF90B8
:100D6000AF907F906F905F904F900895AB01960188
:100D700019A28E010F5D1F4F8AE0C82ED12CE12CE5
:100D8000F12CCA01B901A70196010E94820B605D96
:100D9000F80162938F01211531054105510589F74D
:100DA00090E080E0309769F2BF01C5010E944506DE
:100DB000C8CFCF93DF93AC01990F660B770B8CE410
:100DC00092E00E945406EC0164E471E08CE492E04D
:100DD0000E9445068C0F9D1FDF91CF91089585EDF0
:100DE0008093BC008091240290912502A09126025C
:100DF000B09127020796A11DB11D23E0B695A795D6
:100E0000979587952A95D1F72091BC0024FD03C0C2
:100E1000109222020895409124025091250260917F
:100E2000260270912702452B462B472B69F300972A
:100E3000A105B10541F02AE22A95F1F700C001971A
:100E4000A109B109E1CF809123020C945C041F92A7
:100E50000F920FB60F9211242F933F934F935F93EE
:100E60006F937F938F939F93AF93BF93EF93FF9372
:100E70008CE492E00E942601FF91EF91BF91AF9127
:100E80009F918F917F916F915F914F913F912F91A2
:100E90000F900FBE0F901F9018951F920F920FB6D4
:100EA0000F9211242F938F939F93EF93FF93E091D1
:100EB0005C02F0915D028081E0916202F091630238
:100EC00082FD1BC09081809165028F5F8F7320919E
:100ED0006602821741F0E0916502F0E0E45BFD4FAD
:100EE000958F80936502FF91EF919F918F912F9144
:100EF0000F900FBE0F901F9018958081F4CF1F9216
:100F00000F920FB60F9211242F933F938F939F93BD
:100F1000AF93BF938091F8019091F901A091FA01EC
:100F2000B091FB013091DD0123E0230F2D3758F5FF
:100F30000196A11DB11D2093DD018093F8019093CE
:100F4000F901A093FA01B093FB018091DE01909129
:100F5000DF01A091E001B091E1010196A11DB11D59
:100F60008093DE019093DF01A093E001B093E10153
:100F7000BF91AF919F918F913F912F910F900FBE95
:100F80000F901F90189526E8230F0296A11DB11D02
:100F9000D2CF1F920F920FB60F9211242F933F932F
:100FA0004F935F936F937F938F939F93AF93BF9371
:100FB000EF93FF938091B900887F803609F44AC08F
:100FC000F0F5883209F4A7C018F5803109F49BC008
:100FD000B8F4882309F4F9C0883009F494C0FF916B
:100FE000EF91BF91AF919F918F917F916F915F91A1
:100FF0004F913F912F910F900FBE0F901F9018951A
:10100000883109F488C0803251F78093200214C0DF
:10101000803409F49DC040F48033B9F38833F9F685
:101020008093200285ECB0C0803509F485C08835F6
:1010300009F496C0883499F60E94EF06D0CF88391B
:1010400009F48CC038F5883729F050F4883611F04F
:10105000803729F683E0809322021092DB0157C08B
:10106000883809F47BC0803919F0803809F0B7CF8F
:101070008091DB01803208F071C0E091DB0181E0FA
:101080008E0F8093DB018091BB00F0E0E554FE4FB2
:1010900080833DC0803B39F0E0F4803A09F479C0A8
:1010A000883A09F09CCF84E0809322021092BA0122
:1010B0001092B901E091E401F091E5010995809168
:1010C000B90181110FC081E08093B901109299019B
:1010D00009C0803C09F4A6CF883C09F4A3CF883B23
:1010E00009F07DCFE091BA0181E08E0F8093BA01C3
:1010F000F0E0E756FE4F80818093BB009091BA01EB
:101100008091B90129C08091FD018093BB0085ECDD
:101110008093BC0064CF90911F0280911E029817AB
:1011200058F5E0911F0281E08E0F80931F02F0E0DE
:10113000E250FE4F8081E9CFE0911F0281E08E0FE7
:1011400080931F028091BB00F0E0E250FE4F80834D
:1011500090911F0280911E029817C8F285E8D8CF9F
:10116000E0911F0281E08E0F80931F028091BB00EF
:10117000F0E0E250FE4F80838091210281115CCF2C
:1011800081E08093FC0184EA8093BC0010922202EB
:1011900026CF85EC8093BC00109222028091DB0167
:1011A000803230F4E091DB01F0E0E554FE4F108234
:1011B0006091DB0170E0E091E201F091E3018BEBE3
:1011C00091E009951092DB010ACF1092200234CFF2
:1011D000ECE4F2E01382128288EE93E0A0E0B0E04B
:1011E00084839583A683B78328E131E0318320830C
:1011F00025EC30E03587248724EC30E037872687DC
:1012000020EC30E0318B208B21EC30E0338B228BD3
:1012100022EC30E0358B248B26EC30E0378B268BAC
:10122000118E128E138E148EE9EEF2E0138212826A
:1012300084839583A683B7838AE291E09183808338
:10124000E6EFF2E0138212828CE391E091838083D7
:101250000E94E4038AE08093F5020E9487000C94C8
:101260000102CF93DF93CDB7DEB7A2970FB6F89404
:10127000DEBF0FBECDBF789484B5826084BD84B5D7
:10128000816084BD85B5826085BD85B5816085BD81
:1012900080916E00816080936E0010928100809139
:1012A00081008260809381008091810081608093C1
:1012B0008100809180008160809380008091B100E6
:1012C00084608093B1008091B00081608093B00011
:1012D00080917A00846080937A0080917A008260A5
:1012E00080937A0080917A00816080937A00809167
:1012F0007A00806880937A001092C100E0915C02CD
:10130000F0915D0212E01083E0915802F0915902D1
:101310001082E0915A02F0915B028FEC8083109270
:101320006402E0916002F091610286E08083E091C6
:101330005E02F0915F02808180618083E0915E02B5
:10134000F0915F02808188608083E0915E02F0917D
:101350005F02808180688083E0915E02F0915F028D
:1013600080818F7D80830E94E4031092E7011092B8
:10137000E6011092290210924B020E943E0486EA76
:1013800090E09093E5018093E40187EA90E09093E8
:10139000E3018093E2018091FA02982F9860909384
:1013A000FA021093FE021092FF02EBE3FDE0319788
:1013B000F1F788620E9405068BE496E40197F1F745
:1013C0008091FA0280620E94050683E592E001970F
:1013D000F1F78091FA0280620E9405068091FA027C
:1013E00080620E94050684E08093FB028CE00E94EC
:1013F000050681E00E9405065BE3E52E5FE1F52E20
:10140000C7010197F1F71093FC0286E00E940506E0
:1014100060E080E00E9429066FEF88E00E942906C4
:1014200060E281E00E9429066FEF84E00E942906B5
:101430006FEF83E00E9429066FEF82E00E94290689
:1014400080E8898384E88A838E010F5F1F4FC8017B
:101450000E94EA0567E471E086EF92E00E9445068B
:1014600064E571E08CE492E00E94450664E471E07A
:101470008CE492E00E9445066CED75E080E090E01F
:101480000E94340281E00E940506C7010197F1F72E
:101490000E94060280EC0E9467020E9401026AE03C
:1014A00070E080E090E00E9434028EE0F80111923A
:1014B0008A95E9F74EE0B80180E30E94E4024EE02D
:1014C000B80180E40E94E4024EE0B80180E50E9489
:1014D000E40260E080E60E94D10260E080E70E94C2
:1014E000D10263EA8BE20E94D10244E067E680E623
:1014F0000E946E0241E067E680E70E946E028CE087
:10150000E0E0F1E0DE011F9601900D928A95E1F78F
:101510005E01FFE0AF0EB11CD12CC12C68E0962E0D
:10152000F501E190F1905F0180E80E948702892B2C
:1015300079F4F2E0EF16F10409F4D0C008F077C0B6
:10154000E114F10409F4D0C0EA94EF2809F47DC055
:1015500080E80E948702892B61F460E08AE20E94A1
:10156000D10260E989E20E94D10262E888E20E9429
:10157000D10280E00E9487028BE3C82E8FE1D82E33
:1015800090E0E92E90E0F92E20E8A22E30EC832E98
:101590000E94C903892B09F0B0C09090F001B0906F
:1015A000F101A982AA82C8010E94EA0561E671E000
:1015B00086EF92E00E944506492D50E070E060E021
:1015C00086EF92E00E945406892D90E00E94D90691
:1015D000A9828A82C8010E94EA0569E671E086EF65
:1015E00092E00E9445068B2D90E00E94D9064B2D7B
:1015F00050E070E060E086EF92E00E94540664EFF5
:1016000071E080E090E00E94340281E00E940506D3
:10161000C6010197F1F7E114F10409F4B9CF0E9472
:101620001201882309F4B4CF0E940000B1CFE4E096
:10163000EE16F10409F456C008F452C085E0E8162D
:10164000F10409F085CF88E101C084E091E0C9167A
:10165000D10409F04BC01E8E1D8E9C8E1B8E44E063
:10166000BE01655E7F4F0E94E402EFEFCE1ADE0AF4
:10167000F6E0CF16D10409F053CF18A21F8E81E0F7
:1016800090E09AA389A37E018FE1E80EF11C5E0130
:1016900093E2A90EB11C48E0942EF701C190D190BD
:1016A0007F0180E80E948702892B09F051CF1E8EAE
:1016B0001D8E9C8E1B8EC114D104E9F0CA94CD28D6
:1016C00009F046CF84E244E0BE01655E7F4F0E9490
:1016D000E402EA14FB0409F43BCFDFCF88E0B6CF85
:1016E00080E1B4CF84E1B2CF80E0B0CF1B8E1C8EFE
:1016F0001E8E1D8EB4CF80E2E6CF0E94C9030E94E9
:10170000D90689CFA1E21A2EAA1BBB1BFD010DC071
:10171000AA1FBB1FEE1FFF1FA217B307E407F507A1
:1017200020F0A21BB30BE40BF50B661F771F881F7D
:10173000991F1A9469F760957095809590959B0113
:10174000AC01BD01CF010895EE0FFF1F0590F4918C
:08175000E02D0994F894FFCF8D
:10175800000001000200030004000500606166014A
:1017680070717602000000004801A800D5009501BC
:101778000601E400F80000000000BB058E054206E3
:101788006405870574056505000000001606A800B5
:10179800420666020D0A0043414E425553205452F8
:1017A80041494C0043616E42757320547261696C03
:1017B8000048756D69203A200054656D70203A2004
:0217C80000001F
:00000001FF
