:030000000208D023
:0C08D000787FE4F6D8FD75810F02082E39
:100850004E616869646100456D6265646465642029
:09086000536F6674776172650044
:10082E001208967F801208B47BFF7A08795012085E
:10083E00007FC01208B47BFF7A0879571208008037
:02084E00E222A4
:100882008E0B8F0CE50C150CAE0B7002150BFFEFE7
:040892004E70F12291
:0E08A60053B07F7FE87E0312088243B08022A9
:0608DC008F0D850DA02226
:0E08B4008F0EAF0E1208DC53B0DF1208A62222
:0E08C2008F0FAF0F1208DC43B0201208A622E1
:100800008B088A09890AAB08AA09A90A120869FF94
:10081000EF601AAB08AA09A90A120869FF1208C2F8
:0E0820007401250AF50AE43509F50980D9228C
:100896007F381208B47F0E1208B47F061208B422FD
:10086900BB010689828A83E0225002E722BBFE028D
:09087900E32289828A83E49322C0
:00000001FF
