:030000000208757E
:0C087500787FE4F6D8FD75810902086662
:0F0866002090031208002091F712082980F22237
:1008000075A0017F587E1B12085275A0027F587E8A
:100810001B12085275A0047F587E1B12085275A047
:09082000087F587E1B12085222C9
:1008290075A0087F587E1B12085275A0047F587E58
:100839001B12085275A0027F587E1B12085275A020
:09084900017F587E1B12085222A7
:100852008E088F09E5091509AE0870021508FFEF29
:040862004E70F122C1
:00000001FF
