:03000000020907EB
:0C090700787FE4F6D8FD75812102094ECE
:100A07008E1B8F1CE51C151CAE1B7002151BFFEF00
:040A17004E70F1220A
:0E0A4E0053B07F7FE87E03120A0743B0802278
:060AAC008F1D851DA02234
:0E0A5C008F1EAF1E120AAC53B0DF120A4E22DC
:0E0A6A008F1FAF1F120AAC43B020120A4E229B
:100993008B188A19891AAB18AA19A91A1209EEFF1A
:1009A300EF601AAB18AA19A91A1209EEFF120A6A04
:0E09B3007401251AF51AE43519F51980D922B8
:100A2E007F38120A5C7F0E120A5C7F06120A5C2265
:100A3E004D79204D6B65792056616C7565733A0062
:1009C100752000120A2E120AB27F80120A5C7BFF88
:1009D1007A0A793E1209931208008F20E52060E916
:0C09E1007FC0120A5CAF20120A6A80DDA1
:0109ED0022E7
:100A1B001008373839253435362A3132332D233007
:020A2B003D2B61
:0D0A78005390FE43900243900443900822E7
:0D0A85004390015390FD43900443900822DC
:0D0A92004390014390025390FB43900822D3
:0D0A9F004390014390024390045390F722CE
:040AB2007590FF221A
:10080000752100120A78E59020E40BE59030E4FBB6
:10081000850821020904E59020E50BE59030E5FB11
:10082000850921020904E59020E60BE59030E6FBFE
:10083000850A21020904E59020E70BE59030E7FBEB
:10084000850B21020904120A85E59020E40BE5904E
:1008500030E4FB850C21020904E59020E50BE590CE
:1008600030E5FB850D21020904E59020E60BE590BB
:1008700030E6FB850E21020904E59020E70AE590A9
:1008800030E7FB850F21807C120A92E59020E40A74
:10089000E59030E4FB851021806AE59020E50AE5CB
:1008A0009030E5FB851121805BE59020E60AE5901C
:1008B00030E6FB851221804CE59020E70AE5903078
:1008C000E7FB851321803D120A9FE59020E40AE5AD
:1008D0009030E4FB851421802BE59020E50AE5901B
:1008E00030E5FB851521801CE59020E60AE5903077
:1008F000E6FB851621800DE59020E708E59030E7BE
:06090000FB851721AF2169
:0109060022CE
:100913000209C1E493A3F8E493A34003F68001F230
:1009230008DFF48029E493A3F85407240CC8C333E5
:10093300C4540F4420C8834004F456800146F6DFB4
:10094300E4800B0102040810204080900A1BE47E1F
:10095300019360BCA3FF543F30E509541FFEE493A9
:10096300A360010ECF54C025E060A840B8E493A370
:10097300FAE493A3F8E493A3C8C582C8CAC583CA9B
:10098300F0A3C8C582C8CAC583CADFE9DEE780BE53
:010A2D0000C8
:1009EE00BB010689828A83E0225002E722BBFE0207
:0909FE00E32289828A83E493223A
:00000001FF
