:100000000C9462000C948A000C948A000C948A0070
:100010000C948A000C948A000C948A000C948A0038
:100020000C948A000C948A000C948A000C948A0028
:100030000C948A000C948A000C948A000C948A0018
:100040000C9448050C948A000C9416050C94F0044A
:100050000C948A000C948A000C948A000C948A00F8
:100060000C948A000C948A000000000024002700F1
:100070002A0000000000250028002B0000000008D6
:10008000000201000003040700000000000000005F
:1000900000000000230026002900040404040404D6
:1000A0000404020202020202030303030303010227
:1000B00004081020408001020408102001020408F6
:1000C0001020920511241FBECFEFD8E0DEBFCDBFB8
:1000D00011E0A0E0B1E0E2E0F6E102C005900D928F
:1000E000A833B107D9F722E0A8E3B1E001C01D921F
:1000F000A830B207E1F710E0C2E6D0E004C02197D3
:10010000FE010E94F00AC136D107C9F70E94E90535
:100110000C94FF0A0C940000CF92DF92EF92FF92B2
:10012000CF93DF93B091F801A0E08111AB2F8091C4
:10013000F90190E0880F991FAC0140575F4FC090C4
:10014000FE01D090FF01E0900002F090010230E04B
:1001500020E0FA01C591D491E881B90190E080E0F6
:10016000EB23EA130AC02F5F3F4F6C157D058E0508
:100170009F0578F36FEF7FEFCB01DF91CF91FF9079
:10018000EF90DF90CF900895AF92BF92CF92DF9221
:10019000EF92FF920F931F93CF93DF936C017B013C
:1001A0008B01040F151FEB015E01AE18BF08C017CD
:1001B000D10759F06991D601ED91FC910190F08140
:1001C000E02DC6010995892B79F7C501DF91CF9103
:1001D0001F910F91FF90EF90DF90CF90BF90AF9065
:1001E0000895FC01538D448D252F30E0842F90E03D
:1001F000821B930B541710F0CF9608950197089522
:10020000FC01918D828D981761F0A28DAE0FBF2FEA
:10021000B11D5D968C91928D9F5F9F73928F90E040
:1002200008958FEF9FEF0895FC01918D828D9817AF
:1002300031F0828DE80FF11D858D90E008958FEFEC
:100240009FEF0895FC01918D228D892F90E0805CB5
:100250009F4F821B91098F739927089584E591E040
:100260000E94220121E0892B09F420E0822F0895C9
:1002700080E090E0892B29F00E942E0181110C94DE
:1002800000000895FC01A48DA80FB92FB11DA35A39
:10029000BF4F2C91848D90E001968F739927848FA6
:1002A000A689B7892C93A089B1898C9183708064C9
:1002B0008C93938D848D981306C00288F389E02D6A
:1002C00080818F7D80830895EF92FF920F931F931B
:1002D000CF93DF93EC0181E0888F9B8D8C8D9813F9
:1002E0001AC0E889F989808185FF15C09FB7F89405
:1002F000EE89FF896083E889F98980818370806451
:1003000080839FBF81E090E0DF91CF911F910F919B
:10031000FF90EF900895F62E0B8D10E00F5F1F4FAA
:100320000F731127E02E8C8D8E110CC00FB607FCB9
:10033000FACFE889F989808185FFF5CFCE010E9447
:100340004201F1CFEB8DEC0FFD2FF11DE35AFF4F72
:10035000F0829FB7F8940B8FEA89FB8980818062D5
:10036000CFCFCF93DF93EC01888D8823B9F0AA8992
:10037000BB89E889F9898C9185FD03C0808186FD60
:100380000DC00FB607FCF7CF8C9185FFF2CF8081AF
:1003900085FFEDCFCE010E944201E9CFDF91CF91E1
:1003A000089590E0FC01E458FF4F2491FC01E255D0
:1003B000FF4F3491FC01E656FF4FE491EE23C9F064
:1003C000222339F0233001F1A8F4213019F1223031
:1003D00029F1F0E0EE0FFF1FEE58FF4FA591B49109
:1003E0008FB7F894EC91611126C030953E233C9371
:1003F0008FBF08952730A9F02830C9F0243049F77D
:10040000809180008F7D03C0809180008F778093E2
:100410008000DFCF84B58F7784BDDBCF84B58F7D3F
:10042000FBCF8091B0008F778093B000D2CF8091C6
:10043000B0008F7DF9CF3E2BDACF61E080910402CE
:100440000C94D10180E58CBD81E08DBD60E0809190
:1004500004020C94D101CF93DF9390E0FC01E255AC
:10046000FF4F249186569F4FFC0184918823D1F041
:1004700090E0880F991FFC01E859FF4FA591B491B6
:10048000FC01EE58FF4FC591D491623071F49FB7D3
:10049000F8943C91822F809583238C93E8812E2BB6
:1004A00028839FBFDF91CF9108958FB7F894EC9187
:1004B0002E2B2C938FBFF6CF3FB7F89480913A0143
:1004C00090913B01A0913C01B0913D0126B5A89BC4
:1004D00005C02F3F19F00196A11DB11D3FBFBA2FD6
:1004E000A92F982F8827BC01CD01620F711D811D96
:1004F000911D42E0660F771F881F991F4A95D1F71B
:1005000008958F929F92AF92BF92CF92DF92EF9217
:10051000FF924B015C010E945C026B017C010E9416
:100520005C026C197D098E099F09683E7340810544
:100530009105A8F321E0821A9108A108B10888EE7C
:10054000C80E83E0D81EE11CF11C81149104A104A3
:10055000B10429F7FF90EF90DF90CF90BF90AF905C
:100560009F908F900895CF92DF92EF92FF920F931A
:100570001F93CF93DF93CDB7DEB7C054D1400FB6F2
:10058000F894DEBF0FBECDBF2FB7F8948091500115
:1005900090915101A0915201B09153012FBF409110
:1005A000FA015091FB016091FC017091FD018C01F9
:1005B0009D01041B150B260B370BB901A801403D0B
:1005C00057406105710590F480910202C05CDE4FD6
:1005D0000FB6F894DEBF0FBECDBFDF91CF911F9154
:1005E0000F91FF90EF90DF90CF9008958093FA01E4
:1005F0009093FB01A093FC01B093FD011092F501D3
:100600001092F4011092F3011092F2011092F10194
:1006100062E08091F6010E942B0261E070E080E0D0
:1006200090E00E94810261E08091F6010E942B021D
:1006300060E08091F6010E94D1018091F70185511F
:10064000823020F58BE291E10197F1F762E0809131
:10065000F6010E942B028091030290E08230910506
:1006600038F0880F991F880F991F05970197F1F7A8
:10067000F89480E00E948C006F3F7F4F8F4F9F4F18
:1006800061F410920202789480E0A0CF64E170E0FF
:1006900080E090E00E948102D9CF81E00E948C002E
:1006A0006F3F7F4F8F4F9F4F61F38E010F5F1F4F43
:1006B0006E018FEBC81A8EEFD80A780180E00E9495
:1006C0008C00F701608371838283938381E00E94B1
:1006D0008C00F7016483758386839783F8E0EF0EBF
:1006E000F11CEC14FD0451F7789430E020E0F8019F
:1006F000C080D180E280F38044815581668177811A
:10070000FFEFCF16DF06EF06FF0631F04F3F8FEF0A
:1007100058076807780719F410920202B5CFF9015B
:1007200083E0F595E7958A95E1F7EF50FE4F8081DC
:10073000880FC416D506E606F70610F180832F5FF2
:100740003F4F085F1F4F2832310589F64091F50170
:100750002091F1018091F201280F3327331F8091FE
:10076000F301280F311D8091F401820F932F911D09
:1007700099274817190681F681E08093020226CF57
:100780008160DCCF8EBD00000DB407FEFDCF8EB5BD
:100790000895CF93C82F0E94220283E00E94C203D3
:1007A0008C2F0E94C20380E00E94C203C82F0E94C7
:1007B0001D028C2FCF9108951F93CF93DF93182F95
:1007C000D62FC42F0E94220285E00E94C203812FEF
:1007D0000E94C2038D2F0E94C2038C2F0E94C2036D
:1007E000DF91CF911F910C941D02CF92DF92EF9277
:1007F000FF92CF93C82F482F60EE8FE00E94DC035A
:100800008FB7F894C0905001D0905101E090520100
:10081000F09053018FBF8AE0C80ED11CE11CF11C7F
:100820002FB7F8948091500190915101A0915201FD
:10083000B09153012FBF8C159D05AE05BF0580F407
:100840008EE00E94C903807EC813EACF81E091E068
:10085000892790E0CF91FF90EF90DF90CF9008959F
:1008600080E0F5CFCF93DF93D82FC62F0E942202CE
:1008700082E00E94C2038D2F0E94C2038C2F0E942F
:10088000C203DF91CF910C941D02FF920F931F932F
:10089000CF93DF93C82FF62E172F042F0E9422022A
:1008A00082E00E94C2038C2F0E94C203CF2DD12F61
:1008B0000C0F1D2F111DC017D10721F089910E9427
:1008C000C203F9CFDF91CF911F910F91FF900C944C
:1008D0001D02CF93CFB7F89480913801811127C0C2
:1008E000E4EAF0E08491E8EBF0E09491E82FF0E0A6
:1008F000EE0FFF1FE859FF4FA591B491EC91E9234A
:1009000021F461E08AE00E94D10161E08AE00E9466
:100910002B028CB580618CBD8CB580648CBD61E090
:100920008DE00E942B0261E08BE00E942B028091FF
:1009300038018F5F80933801CFBFCF910895FC01BC
:1009400001900020E9F73197AF01481B590BBC011A
:1009500084E591E00C94C4008F929F92AF92BF9275
:100960000F931F93CF93DF93CDB7DEB7A1970FB649
:10097000F894DEBF0FBECDBF19A2423008F44AE0A2
:100980008E010F5D1F4F842E912CB12CA12CA5013F
:1009900094010E94CE0AE62FB901CA01EA30F4F4AC
:1009A000E05DD801EE938D01232B242B252B79F7C5
:1009B00090E080E0109719F0CD010E949F04A1966D
:1009C0000FB6F894DEBF0FBECDBFDF91CF911F9160
:1009D0000F91BF90AF909F908F900895E95CE1CF09
:1009E0001F920F920FB60F9211242F933F934F93A4
:1009F0005F936F937F938F939F93AF93BF93EF9387
:100A0000FF9384E591E00E944201FF91EF91BF9135
:100A1000AF919F918F917F916F915F914F913F9196
:100A20002F910F900FBE0F901F9018951F920F924D
:100A30000FB60F9211242F938F939F93EF93FF93F1
:100A4000E0916401F09165018081E0916A01F0918B
:100A50006B0182FD1BC0908180916D018F5F8F7350
:100A600020916E01821741F0E0916D01F0E0EC5AA7
:100A7000FE4F958F80936D01FF91EF919F918F9124
:100A80002F910F900FBE0F901F9018958081F4CF7B
:100A90001F920F920FB60F9211242F933F938F93B3
:100AA0009F93AF93BF938091500190915101A0917A
:100AB0005201B09153013091390123E0230F2D37BA
:100AC00058F50196A11DB11D209339018093500165
:100AD00090935101A0935201B093530180913A0138
:100AE00090913B01A0913C01B0913D010196A11D67
:100AF000B11D80933A0190933B01A0933C01B093C8
:100B00003D01BF91AF919F918F913F912F910F9098
:100B10000FBE0F901F90189526E8230F0296A11D77
:100B2000B11DD2CFE4E5F1E01382128288EE93E0AA
:100B3000A0E0B0E084839583A683B7838FE191E042
:100B40009183808385EC90E09587848784EC90E0A6
:100B50009787868780EC90E0918B808B81EC90E08A
:100B6000938B828B82EC90E0958B848B86EC90E06B
:100B7000978B868B118E128E138E148E0E946904B1
:100B80008AE08093040261E00E942B020E941D0211
:100B9000A1EFB1E088E015968C9315978BE016963F
:100BA0008C931697E6EBF0E0E4911796EC93179789
:100BB000E2EAF0E0E4911896EC93189740E85EE3DF
:100BC00060E070E01D964D935D936D937C9350971C
:100BD0000895CF93DF93CDB7DEB7A9970FB6F894FA
:100BE000DEBF0FBECDBF789484B5826084BD84B56E
:100BF000816084BD85B5826085BD85B5816085BD18
:100C000080916E00816080936E00109281008091CF
:100C10008100826080938100809181008160809357
:100C20008100809180008160809380008091B1007C
:100C300084608093B1008091B00081608093B000A7
:100C400080917A00846080937A0080917A0082603B
:100C500080937A0080917A00816080937A008091FD
:100C60007A00806880937A001092C100E09164015C
:100C7000F091650182E08083E0916001F091610173
:100C80001082E0916201F09163018FEC80831092F9
:100C90006C01E0916801F091690186E08083E09148
:100CA0006601F0916701808180618083E091660137
:100CB000F0916701808188608083E0916601F09106
:100CC0006701808180688083E0916601F09167010F
:100CD00080818F7D80830E94690462E08091F601AB
:100CE0000E942B022FB7F8948091500190915101EE
:100CF000A0915201B09153012FBF805D9740A1098F
:100D0000B1098093FA019093FB01A093FC01B09389
:100D1000FD0187E3809303020E94220280EC0E947F
:100D2000C2030E941D026AE070E080E090E00E9431
:100D30008102CE0101967C018EE0D7011D928A9539
:100D4000E9F74EE0B70180E30E9445044EE0B701A9
:100D500080E40E9445044EE0B70180E50E9445040E
:100D600060E080E60E94320460E080E70E94320486
:100D700063EA8BE20E94320444E067E680E60E9468
:100D8000DC0341E067E680E70E94DC038CE0E0E002
:100D9000F1E0DE011F9601900D928A95E1F73E0188
:100DA000BFE06B0E711CB12CA12CC62C79A698E06B
:100DB000D92EF301019111913F0180E80E94F503C2
:100DC000892B69F40230110509F483C0C8F50115B7
:100DD000110509F440C00130110509F480C080E814
:100DE0000E94F503892B61F460E08AE20E943204DC
:100DF00060E989E20E94320462E888E20E943204DB
:100E000080E00E94F50316E3412E512C612C712CD9
:100E1000CE0145969CA38BA30E94B302882359F070
:100E20008091F7018B3038F08D3008F46AC085511D
:100E3000823008F498C060E070E080EC9FE77DC0ED
:100E40000430110509F449C008F445C00530110506
:100E500031F688E101C080E0F1E0AF16B10409F09D
:100E600040C01E8E1D8EDC8E1B8E44E0BE01655E72
:100E70007F4F0E9445048FEFA81AB80A96E0A91682
:100E8000B10409F096CF18A21F8E81E090E09AA3DA
:100E900089A38E01015E1F4F5E01A3E2AA0EB11C61
:100EA00088E0D82EF801619071908F0180E80E944F
:100EB000F503892B09F093CF1E8E1D8EDC8E1B8EC1
:100EC0006114710499F06A94672809F088CF84E26C
:100ED0000EC088E0C1CF80E1BFCF84E1BDCF84E008
:100EE000BBCF1B8E1C8E1E8E1D8EBFCF80E244E0BA
:100EF000BE01655E7F4F0E944504A016B10691F6C3
:100F00006ECF6091F20170E090E080E00E94D50920
:100F10002DEC3CEC4CEC5DE30E94610A4B015C0162
:100F20006091F10170E090E080E00E94D5099B01A2
:100F3000AC01C501B4010E9431090E949D09062F30
:100F40000E94B302882341F08091F7018C3009F4AC
:100F50002EC1D8F48B3091F1812C912CA0ECAA2ECB
:100F6000AFE7BA2E55C06091F1017091F20176277A
:100F70006727762790E080E00E94D3092DEC3CECB7
:100F80004CEC5DE30E94610AD8CF8551823020F796
:100F90001091F301612F70E0762F662766277F7727
:100FA0008091F401682B90E080E00E94D3092DEC41
:100FB0003CEC4CEC5DE30E94610A15C16091F301C9
:100FC00070E090E080E00E94D3094B015C01109139
:100FD000F40117FF0AC0AC019B0160E070E080E8FB
:100FE0009FEB0E9430094B015C011F70612F70E084
:100FF00090E080E00E94D5092DEC3CEC4CEC5DE3E8
:101000000E94610AA50194010E9431094B015C0113
:101010008DE291E00E949F0484E391E00E949F048E
:101020000E94220280EA0E94C20380E00E94C20362
:10103000182F0E941D02612F70E090E080E04AE0CE
:101040000E94AC0484E391E00E949F04409240011E
:1010500050924101609242017092430198E0909356
:10106000440100934801C501B4010E949D096093A9
:10107000490110924A0110924B0110924C011092BA
:101080004D0110924E0110924F0186E0ECE0F1E02C
:10109000DE011F9601900D928A95E1F70C2D19A59E
:1010A000D801AD90BD908D011501220C331CF101CA
:1010B000EA0DFB1DEE5EFE4FD0808D2D0E94C90310
:1010C00083FDAAC010914401193008F06DC0409111
:1010D0004001509141016091420170914301DB0157
:1010E000CA018827B7FD83959927AA27BB27282FF0
:1010F000DB01CA0188279927AA27B0748DA39EA374
:10110000AFA3B8A78FEF9FEFAFEFBFE1211104C0EE
:101110008FEF97E0A0E0B0E084239523A623B723C8
:10112000222309F469C08C839B83CD01AA27BB27A6
:10113000282F220F220F220F207E382F3370386085
:10114000232B2A8335E0969587953A95E1F7898395
:101150008DA19EA1AFA1B8A5892B8A2B8B2B09F459
:1011600059C0812F80648D83412F50E068E471E085
:10117000CE0106960E94F60A45E0410FF101EA0D04
:10118000FB1DEE5EFE4FB70181810E94450448E0E1
:1011900068E08D2D0E94DC038D2D0E94C9038077AD
:1011A00070E060E009F440C064E070E03DC0109180
:1011B000F301612F70E090E080E00E94D3094B01C1
:1011C0005C016091F4016F7070E090E080E00E943B
:1011D000D5092DEC3CEC4CEC5DE30E94610AA501C5
:1011E00094010E9431094B015C0117FF11CFB7FA3E
:1011F000B094B7F8B0940CCF9C0193E03695279546
:101200009A95E1F729838295880F807E8A831C82D4
:101210001B829ECF812FA7CFABA1BCA1A017B10786
:1012200009F03ECF62E070E090E080E04AE00E948A
:10123000AC0484E391E00E949F0468EE73E080E0D8
:1012400090E00E948102E0E0F0E0EF2B09F4E4CDB1
:101250000E942E01882309F4DFCD0E940000DCCD1E
:101260005058BB27AA270E9448090C94270A0E94BD
:10127000190A38F00E94200A20F039F49F3F19F42F
:1012800026F40C94160A0EF4E095E7FB0C94100A71
:10129000E92F0E94380A58F3BA17620773078407C8
:1012A000950720F079F4A6F50C945A0A0EF4E0950F
:1012B0000B2EBA2FA02D0B01B90190010C01CA0110
:1012C000A0011124FF27591B99F0593F50F4503EBB
:1012D00068F11A16F040A22F232F342F4427585FAD
:1012E000F3CF469537952795A795F0405395C9F7C5
:1012F0007EF41F16BA0B620B730B840BBAF091507D
:10130000A1F0FF0FBB1F661F771F881FC2F70EC01B
:10131000BA0F621F731F841F48F4879577956795EE
:10132000B795F7959E3F08F0B0CF9395880F08F0DA
:101330009927EE0F9795879508950E94A4096894C0
:10134000B1110C945B0A08950E94400A88F09F57DF
:1013500098F0B92F9927B751B0F0E1F0660F771FD9
:10136000881F991F1AF0BA95C9F714C0B13091F0CF
:101370000E945A0AB1E008950C945A0A672F782FF8
:101380008827B85F39F0B93FCCF386957795679594
:10139000B395D9F73EF490958095709561957F4F00
:1013A0008F4F9F4F0895E89409C097FB3EF49095A6
:1013B0008095709561957F4F8F4F9F4F9923A9F02E
:1013C000F92F96E9BB279395F695879577956795BD
:1013D000B795F111F8CFFAF4BB0F11F460FF1BC001
:1013E0006F5F7F4F8F4F9F4F16C0882311F096E994
:1013F00011C0772321F09EE8872F762F05C0662342
:1014000071F096E8862F70E060E02AF09A95660FFA
:10141000771F881FDAF7880F9695879597F90895B3
:1014200097F99F6780E870E060E008959FEF80EC97
:10143000089500240A94161617061806090608953A
:1014400000240A9412161306140605060895092EA0
:101450000394000C11F4882352F0BB0F40F4BF2B0F
:1014600011F460FF04C06F5F7F4F8F4F9F4F08954F
:1014700057FD9058440F551F59F05F3F71F0479545
:10148000880F97FB991F61F09F3F79F0879508952A
:10149000121613061406551FF2CF4695F1DF08C049
:1014A000161617061806991FF1CF86957105610566
:1014B00008940895E894BB2766277727CB0197F90E
:1014C00008950E94740A0C94270A0E94190A38F0A1
:1014D0000E94200A20F0952311F00C94100A0C941D
:1014E000160A11240C945B0A0E94380A70F3959F27
:1014F000C1F3950F50E0551F629FF001729FBB270B
:10150000F00DB11D639FAA27F00DB11DAA1F649FA6
:101510006627B00DA11D661F829F2227B00DA11D59
:10152000621F739FB00DA11D621F839FA00D611DDF
:10153000221F749F3327A00D611D231F849F600D00
:10154000211D822F762F6A2F11249F5750409AF029
:10155000F1F088234AF0EE0FFF1FBB1F661F771FB5
:10156000881F91505040A9F79E3F510580F00C9480
:10157000100A0C945B0A5F3FE4F3983ED4F386951F
:1015800077956795B795F795E7959F5FC1F7FE2B20
:10159000880F911D9695879597F90895A1E21A2EC7
:1015A000AA1BBB1BFD010DC0AA1FBB1FEE1FFF1F07
:1015B000A217B307E407F50720F0A21BB30BE40B57
:1015C000F50B661F771F881F991F1A9469F760959E
:1015D0007095809590959B01AC01BD01CF01089558
:1015E000EE0FFF1F0590F491E02D0994FB01DC0143
:1015F00002C001900D9241505040D8F70895F894E0
:02160000FFCF1A
:1016020000000100020003000400050000000100C8
:10161200020030313640414650515600000000640D
:1016220001C400F100B101220100011401537461EF
:08163200747573000D0A00003D
:00000001FF
